{
  "_format": "hh-sol-artifact-1",
  "contractName": "OracleMock",
  "sourceName": "contracts/OracleMock.sol",
  "abi": [
    {
      "inputs": [],
      "stateMutability": "nonpayable",
      "type": "constructor"
    },
    {
      "anonymous": false,
      "inputs": [
        {
          "indexed": false,
          "internalType": "uint256",
          "name": "newPrice",
          "type": "uint256"
        },
        {
          "indexed": false,
          "internalType": "uint256",
          "name": "timestamp",
          "type": "uint256"
        }
      ],
      "name": "PriceUpdated",
      "type": "event"
    },
    {
      "inputs": [],
      "name": "fluxoPaymentContract",
      "outputs": [
        {
          "internalType": "address",
          "name": "",
          "type": "address"
        }
      ],
      "stateMutability": "view",
      "type": "function"
    },
    {
      "inputs": [],
      "name": "getPrice",
      "outputs": [
        {
          "internalType": "uint256",
          "name": "",
          "type": "uint256"
        }
      ],
      "stateMutability": "view",
      "type": "function"
    },
    {
      "inputs": [],
      "name": "hbarPriceUSD",
      "outputs": [
        {
          "internalType": "uint256",
          "name": "",
          "type": "uint256"
        }
      ],
      "stateMutability": "view",
      "type": "function"
    },
    {
      "inputs": [],
      "name": "owner",
      "outputs": [
        {
          "internalType": "address",
          "name": "",
          "type": "address"
        }
      ],
      "stateMutability": "view",
      "type": "function"
    },
    {
      "inputs": [
        {
          "internalType": "address",
          "name": "_contract",
          "type": "address"
        }
      ],
      "name": "setFluxoPaymentContract",
      "outputs": [],
      "stateMutability": "nonpayable",
      "type": "function"
    },
    {
      "inputs": [
        {
          "internalType": "uint256",
          "name": "_newPrice",
          "type": "uint256"
        }
      ],
      "name": "updatePrice",
      "outputs": [],
      "stateMutability": "nonpayable",
      "type": "function"
    }
  ],
  "bytecode": "0x608060405234801561001057600080fd5b50600280546001600160a01b03191633179055624c4b40600055610407806100396000396000f3fe608060405234801561001057600080fd5b50600436106100625760003560e01c8063550ee8471461006757806363a9866b146100975780638d6cc56d146100ae5780638da5cb5b146100c357806398d5fdca146100d6578063f1757127146100de575b600080fd5b60015461007a906001600160a01b031681565b6040516001600160a01b0390911681526020015b60405180910390f35b6100a060005481565b60405190815260200161008e565b6100c16100bc366004610359565b6100f1565b005b60025461007a906001600160a01b031681565b6000546100a0565b6100c16100ec366004610372565b6102e2565b6002546001600160a01b0316331461014b5760405162461bcd60e51b81526020600482015260186024820152774f6e6c79206f776e65722063616e2063616c6c207468697360401b60448201526064015b60405180910390fd5b6000811161019b5760405162461bcd60e51b815260206004820152601c60248201527f5072696365206d7573742062652067726561746572207468616e2030000000006044820152606401610142565b6000819055604080518281524260208201527f945c1c4e99aa89f648fbfe3df471b916f719e16d960fcec0737d4d56bd696838910160405180910390a16001546001600160a01b0316156102df57600154604051602481018390526000916001600160a01b03169060440160408051601f198184030181529181526020820180516001600160e01b0316636a42fb8d60e01b1790525161023b91906103a2565b6000604051808303816000865af19150503d8060008114610278576040519150601f19603f3d011682016040523d82523d6000602084013e61027d565b606091505b50509050806102dd5760405162461bcd60e51b815260206004820152602660248201527f4661696c656420746f2075706461746520707269636520696e20466c75786f50604482015265185e5b595b9d60d21b6064820152608401610142565b505b50565b6002546001600160a01b031633146103375760405162461bcd60e51b81526020600482015260186024820152774f6e6c79206f776e65722063616e2063616c6c207468697360401b6044820152606401610142565b600180546001600160a01b0319166001600160a01b0392909216919091179055565b60006020828403121561036b57600080fd5b5035919050565b60006020828403121561038457600080fd5b81356001600160a01b038116811461039b57600080fd5b9392505050565b6000825160005b818110156103c357602081860181015185830152016103a9565b50600092019182525091905056fea2646970667358221220b7918afc83bc2dd08302358c5a1be9125a021db4a688f7200a00e1e669b4467464736f6c63430008140033",
  "linkReferences": {},
  "deployedLinkReferences": {}
}