{
  "_format": "hh-sol-artifact-1",
  "contractName": "FluxoPayment",
  "sourceName": "contracts/FluxoPayment.sol",
  "abi": [
    {
      "inputs": [
        {
          "internalType": "address",
          "name": "_oracleAddress",
          "type": "address"
        }
      ],
      "stateMutability": "nonpayable",
      "type": "constructor"
    },
    {
      "anonymous": false,
      "inputs": [
        {
          "indexed": true,
          "internalType": "address",
          "name": "user",
          "type": "address"
        },
        {
          "indexed": false,
          "internalType": "uint256",
          "name": "newBalance",
          "type": "uint256"
        },
        {
          "indexed": false,
          "internalType": "uint256",
          "name": "timestamp",
          "type": "uint256"
        }
      ],
      "name": "BalanceUpdated",
      "type": "event"
    },
    {
      "anonymous": false,
      "inputs": [
        {
          "indexed": true,
          "internalType": "bytes32",
          "name": "paymentId",
          "type": "bytes32"
        },
        {
          "indexed": true,
          "internalType": "address",
          "name": "from",
          "type": "address"
        },
        {
          "indexed": true,
          "internalType": "address",
          "name": "to",
          "type": "address"
        },
        {
          "indexed": false,
          "internalType": "uint256",
          "name": "amount",
          "type": "uint256"
        },
        {
          "indexed": false,
          "internalType": "uint256",
          "name": "timestamp",
          "type": "uint256"
        }
      ],
      "name": "PaymentCreated",
      "type": "event"
    },
    {
      "anonymous": false,
      "inputs": [
        {
          "indexed": true,
          "internalType": "bytes32",
          "name": "paymentId",
          "type": "bytes32"
        },
        {
          "indexed": true,
          "internalType": "address",
          "name": "from",
          "type": "address"
        },
        {
          "indexed": true,
          "internalType": "address",
          "name": "to",
          "type": "address"
        },
        {
          "indexed": false,
          "internalType": "uint256",
          "name": "amount",
          "type": "uint256"
        },
        {
          "indexed": false,
          "internalType": "uint256",
          "name": "syncTimestamp",
          "type": "uint256"
        }
      ],
      "name": "PaymentSynced",
      "type": "event"
    },
    {
      "inputs": [
        {
          "internalType": "address",
          "name": "",
          "type": "address"
        }
      ],
      "name": "balances",
      "outputs": [
        {
          "internalType": "uint256",
          "name": "",
          "type": "uint256"
        }
      ],
      "stateMutability": "view",
      "type": "function"
    },
    {
      "inputs": [
        {
          "internalType": "uint256",
          "name": "_hbarAmount",
          "type": "uint256"
        }
      ],
      "name": "convertHbarToUSD",
      "outputs": [
        {
          "internalType": "uint256",
          "name": "",
          "type": "uint256"
        }
      ],
      "stateMutability": "view",
      "type": "function"
    },
    {
      "inputs": [
        {
          "internalType": "address",
          "name": "_to",
          "type": "address"
        },
        {
          "internalType": "uint256",
          "name": "_amount",
          "type": "uint256"
        },
        {
          "internalType": "string",
          "name": "_message",
          "type": "string"
        },
        {
          "internalType": "bytes",
          "name": "_signature",
          "type": "bytes"
        }
      ],
      "name": "createOfflinePayment",
      "outputs": [
        {
          "internalType": "bytes32",
          "name": "",
          "type": "bytes32"
        }
      ],
      "stateMutability": "nonpayable",
      "type": "function"
    },
    {
      "inputs": [],
      "name": "deposit",
      "outputs": [],
      "stateMutability": "payable",
      "type": "function"
    },
    {
      "inputs": [
        {
          "internalType": "address",
          "name": "_user",
          "type": "address"
        }
      ],
      "name": "getBalance",
      "outputs": [
        {
          "internalType": "uint256",
          "name": "",
          "type": "uint256"
        }
      ],
      "stateMutability": "view",
      "type": "function"
    },
    {
      "inputs": [
        {
          "internalType": "bytes32",
          "name": "_paymentId",
          "type": "bytes32"
        }
      ],
      "name": "getPayment",
      "outputs": [
        {
          "components": [
            {
              "internalType": "address",
              "name": "from",
              "type": "address"
            },
            {
              "internalType": "address",
              "name": "to",
              "type": "address"
            },
            {
              "internalType": "uint256",
              "name": "amount",
              "type": "uint256"
            },
            {
              "internalType": "uint256",
              "name": "timestamp",
              "type": "uint256"
            },
            {
              "internalType": "string",
              "name": "message",
              "type": "string"
            },
            {
              "internalType": "bytes",
              "name": "signature",
              "type": "bytes"
            },
            {
              "internalType": "bool",
              "name": "synced",
              "type": "bool"
            },
            {
              "internalType": "uint256",
              "name": "syncTimestamp",
              "type": "uint256"
            }
          ],
          "internalType": "struct FluxoPayment.OfflinePayment",
          "name": "",
          "type": "tuple"
        }
      ],
      "stateMutability": "view",
      "type": "function"
    },
    {
      "inputs": [],
      "name": "getTotalPayments",
      "outputs": [
        {
          "internalType": "uint256",
          "name": "",
          "type": "uint256"
        }
      ],
      "stateMutability": "view",
      "type": "function"
    },
    {
      "inputs": [],
      "name": "hbarPriceUSD",
      "outputs": [
        {
          "internalType": "uint256",
          "name": "",
          "type": "uint256"
        }
      ],
      "stateMutability": "view",
      "type": "function"
    },
    {
      "inputs": [
        {
          "internalType": "bytes32",
          "name": "",
          "type": "bytes32"
        }
      ],
      "name": "offlinePayments",
      "outputs": [
        {
          "internalType": "address",
          "name": "from",
          "type": "address"
        },
        {
          "internalType": "address",
          "name": "to",
          "type": "address"
        },
        {
          "internalType": "uint256",
          "name": "amount",
          "type": "uint256"
        },
        {
          "internalType": "uint256",
          "name": "timestamp",
          "type": "uint256"
        },
        {
          "internalType": "string",
          "name": "message",
          "type": "string"
        },
        {
          "internalType": "bytes",
          "name": "signature",
          "type": "bytes"
        },
        {
          "internalType": "bool",
          "name": "synced",
          "type": "bool"
        },
        {
          "internalType": "uint256",
          "name": "syncTimestamp",
          "type": "uint256"
        }
      ],
      "stateMutability": "view",
      "type": "function"
    },
    {
      "inputs": [],
      "name": "oracleAddress",
      "outputs": [
        {
          "internalType": "address",
          "name": "",
          "type": "address"
        }
      ],
      "stateMutability": "view",
      "type": "function"
    },
    {
      "inputs": [],
      "name": "owner",
      "outputs": [
        {
          "internalType": "address",
          "name": "",
          "type": "address"
        }
      ],
      "stateMutability": "view",
      "type": "function"
    },
    {
      "inputs": [
        {
          "internalType": "uint256",
          "name": "",
          "type": "uint256"
        }
      ],
      "name": "paymentIds",
      "outputs": [
        {
          "internalType": "bytes32",
          "name": "",
          "type": "bytes32"
        }
      ],
      "stateMutability": "view",
      "type": "function"
    },
    {
      "inputs": [
        {
          "internalType": "address",
          "name": "_newOracle",
          "type": "address"
        }
      ],
      "name": "setOracleAddress",
      "outputs": [],
      "stateMutability": "nonpayable",
      "type": "function"
    },
    {
      "inputs": [
        {
          "internalType": "bytes32",
          "name": "_paymentId",
          "type": "bytes32"
        }
      ],
      "name": "syncOfflinePayment",
      "outputs": [],
      "stateMutability": "nonpayable",
      "type": "function"
    },
    {
      "inputs": [
        {
          "internalType": "uint256",
          "name": "_price",
          "type": "uint256"
        }
      ],
      "name": "updateHbarPrice",
      "outputs": [],
      "stateMutability": "nonpayable",
      "type": "function"
    },
    {
      "inputs": [
        {
          "internalType": "uint256",
          "name": "_amount",
          "type": "uint256"
        }
      ],
      "name": "withdraw",
      "outputs": [],
      "stateMutability": "nonpayable",
      "type": "function"
    },
    {
      "stateMutability": "payable",
      "type": "receive"
    }
  ],
  "bytecode": "0x608060405234801561001057600080fd5b5060405161152838038061152883398101604081905261002f91610067565b60058054336001600160a01b031991821617909155600480549091166001600160a01b03929092169190911790556000600355610097565b60006020828403121561007957600080fd5b81516001600160a01b038116811461009057600080fd5b9392505050565b611482806100a66000396000f3fe6080604052600436106100f75760003560e01c80638da5cb5b1161008a578063d0e30db011610059578063d0e30db0146102c2578063d946bb02146102ca578063e66eefc8146102ea578063f8b2cb4f1461031757600080fd5b80638da5cb5b1461022a5780639ba6737c14610262578063a692d79f14610282578063a89ae4ba146102a257600080fd5b806363a9866b116100c657806363a9866b146101ab5780636a42fb8d146101c1578063708f29a6146101e15780638aeb8846146101f657600080fd5b806320cdc1a61461010b57806327e235e31461012b5780632e1a7d4d1461016b5780634c69c00f1461018b57600080fd5b366101065761010461034d565b005b600080fd5b34801561011757600080fd5b50610104610126366004610f02565b6103fe565b34801561013757600080fd5b50610158610146366004610f37565b60016020526000908152604090205481565b6040519081526020015b60405180910390f35b34801561017757600080fd5b50610104610186366004610f02565b61065a565b34801561019757600080fd5b506101046101a6366004610f37565b61071e565b3480156101b757600080fd5b5061015860035481565b3480156101cd57600080fd5b506101046101dc366004610f02565b6107e9565b3480156101ed57600080fd5b50600254610158565b34801561020257600080fd5b50610216610211366004610f02565b610848565b604051610162989796959493929190610fa9565b34801561023657600080fd5b5060055461024a906001600160a01b031681565b6040516001600160a01b039091168152602001610162565b34801561026e57600080fd5b5061015861027d366004610f02565b6109ac565b34801561028e57600080fd5b5061015861029d36600461109c565b6109cd565b3480156102ae57600080fd5b5060045461024a906001600160a01b031681565b61010461034d565b3480156102d657600080fd5b506101586102e5366004610f02565b610c99565b3480156102f657600080fd5b5061030a610305366004610f02565b610d0f565b6040516101629190611145565b34801561032357600080fd5b50610158610332366004610f37565b6001600160a01b031660009081526001602052604090205490565b600034116103985760405162461bcd60e51b815260206004820152601360248201527226bab9ba1039b2b7321039b7b6b290242120a960691b60448201526064015b60405180910390fd5b33600090815260016020526040812080543492906103b7908490611202565b9091555050336000818152600160205260409081902054905160008051602061142d833981519152916103f4914290918252602082015260400190565b60405180910390a2565b600081815260208190526040902080546001600160a01b031661045c5760405162461bcd60e51b815260206004820152601660248201527514185e5b595b9d08191bd95cc81b9bdd08195e1a5cdd60521b604482015260640161038f565b600681015460ff16156104aa5760405162461bcd60e51b815260206004820152601660248201527514185e5b595b9d08185b1c9958591e481cde5b98d95960521b604482015260640161038f565b600281015481546001600160a01b031660009081526001602052604090205410156104e75760405162461bcd60e51b815260040161038f90611215565b600281015481546001600160a01b031660009081526001602052604081208054909190610515908490611243565b909155505060028101546001808301546001600160a01b0316600090815260209190915260408120805490919061054d908490611202565b909155505060068101805460ff19166001908117909155426007830181905590820154825460028401546040805191825260208201949094526001600160a01b0392831693929091169185917f87ab01e84f210501db403d150053cda6c0fddfc0677c38da43fe5db0d81febbc910160405180910390a480546001600160a01b03166000818152600160205260409081902054905160008051602061142d83398151915291610606914290918252602082015260400190565b60405180910390a26001818101546001600160a01b0316600081815260209283526040908190205481519081524293810193909352909160008051602061142d833981519152910160405180910390a25050565b336000908152600160205260409020548111156106895760405162461bcd60e51b815260040161038f90611215565b33600090815260016020526040812080548392906106a8908490611243565b9091555050604051339082156108fc029083906000818181858888f193505050501580156106da573d6000803e3d6000fd5b50336000818152600160205260409081902054905160008051602061142d83398151915291610713914290918252602082015260400190565b60405180910390a250565b6005546001600160a01b031633146107785760405162461bcd60e51b815260206004820152601860248201527f4f6e6c79206f776e65722063616e2063616c6c20746869730000000000000000604482015260640161038f565b6001600160a01b0381166107c75760405162461bcd60e51b8152602060048201526016602482015275496e76616c6964206f7261636c65206164647265737360501b604482015260640161038f565b600480546001600160a01b0319166001600160a01b0392909216919091179055565b6004546001600160a01b031633146108435760405162461bcd60e51b815260206004820152601c60248201527f4f6e6c79206f7261636c652063616e2075706461746520707269636500000000604482015260640161038f565b600355565b600060208190529081526040902080546001820154600283015460038401546004850180546001600160a01b039586169694909516949293919261088b90611256565b80601f01602080910402602001604051908101604052809291908181526020018280546108b790611256565b80156109045780601f106108d957610100808354040283529160200191610904565b820191906000526020600020905b8154815290600101906020018083116108e757829003601f168201915b50505050509080600501805461091990611256565b80601f016020809104026020016040519081016040528092919081815260200182805461094590611256565b80156109925780601f1061096757610100808354040283529160200191610992565b820191906000526020600020905b81548152906001019060200180831161097557829003601f168201915b505050506006830154600790930154919260ff1691905088565b600281815481106109bc57600080fd5b600091825260209091200154905081565b60006001600160a01b038516610a255760405162461bcd60e51b815260206004820152601960248201527f496e76616c696420726563697069656e74206164647265737300000000000000604482015260640161038f565b60008411610a755760405162461bcd60e51b815260206004820152601d60248201527f416d6f756e74206d7573742062652067726561746572207468616e2030000000604482015260640161038f565b33600090815260016020526040902054841115610aa45760405162461bcd60e51b815260040161038f90611215565b60003386864287604051602001610abf959493929190611290565b60408051601f1981840301815291815281516020928301206000818152928390529120549091506001600160a01b031615610b355760405162461bcd60e51b81526020600482015260166024820152755061796d656e7420616c72656164792065786973747360501b604482015260640161038f565b60408051610100810182523381526001600160a01b0388811660208084019182528385018a81524260608601908152608086018b815260a087018b9052600060c0880181905260e088018190528981529384905296909220855181549086166001600160a01b0319918216178255935160018201805491909616941693909317909355915160028201559051600382015591519091906004820190610bda9082611333565b5060a08201516005820190610bef9082611333565b5060c082015160068201805460ff191691151591909117905560e090910151600790910155600280546001810182556000919091527f405787fa12a823e0f2b7631cc41b3ba8828b3321ca811111fa75cd3aa3bb5ace01819055604080518681524260208201526001600160a01b03881691339184917fcc23fcd8942b36b52cc0aa3d8c37f0e8518bb0659c4d12741568ea9e4629eed5910160405180910390a495945050505050565b60008060035411610cec5760405162461bcd60e51b815260206004820152601760248201527f5072696365206e6f7420736574206279206f7261636c65000000000000000000604482015260640161038f565b6305f5e10060035483610cff91906113f3565b610d09919061140a565b92915050565b610d6b60405180610100016040528060006001600160a01b0316815260200160006001600160a01b0316815260200160008152602001600081526020016060815260200160608152602001600015158152602001600081525090565b6000828152602081815260409182902082516101008101845281546001600160a01b0390811682526001830154169281019290925260028101549282019290925260038201546060820152600482018054919291608084019190610dce90611256565b80601f0160208091040260200160405190810160405280929190818152602001828054610dfa90611256565b8015610e475780601f10610e1c57610100808354040283529160200191610e47565b820191906000526020600020905b815481529060010190602001808311610e2a57829003601f168201915b50505050508152602001600582018054610e6090611256565b80601f0160208091040260200160405190810160405280929190818152602001828054610e8c90611256565b8015610ed95780601f10610eae57610100808354040283529160200191610ed9565b820191906000526020600020905b815481529060010190602001808311610ebc57829003601f168201915b5050509183525050600682015460ff161515602082015260079091015460409091015292915050565b600060208284031215610f1457600080fd5b5035919050565b80356001600160a01b0381168114610f3257600080fd5b919050565b600060208284031215610f4957600080fd5b610f5282610f1b565b9392505050565b60005b83811015610f74578181015183820152602001610f5c565b50506000910152565b60008151808452610f95816020860160208601610f59565b601f01601f19169290920160200192915050565b6001600160a01b03898116825288166020820152604081018790526060810186905261010060808201819052600090610fe483820188610f7d565b905082810360a0840152610ff88187610f7d565b94151560c0840152505060e001529695505050505050565b634e487b7160e01b600052604160045260246000fd5b600067ffffffffffffffff8084111561104157611041611010565b604051601f8501601f19908116603f0116810190828211818310171561106957611069611010565b8160405280935085815286868601111561108257600080fd5b858560208301376000602087830101525050509392505050565b600080600080608085870312156110b257600080fd5b6110bb85610f1b565b935060208501359250604085013567ffffffffffffffff808211156110df57600080fd5b818701915087601f8301126110f357600080fd5b61110288833560208501611026565b9350606087013591508082111561111857600080fd5b508501601f8101871361112a57600080fd5b61113987823560208401611026565b91505092959194509250565b602080825282516001600160a01b03168282015282015160009061117460408401826001600160a01b03169052565b50604083015160608301526060830151608083015260808301516101008060a08501526111a5610120850183610f7d565b915060a0850151601f198584030160c08601526111c28382610f7d565b92505060c08501516111d860e086018215159052565b5060e0949094015192909301919091525090565b634e487b7160e01b600052601160045260246000fd5b80820180821115610d0957610d096111ec565b602080825260149082015273496e73756666696369656e742062616c616e636560601b604082015260600190565b81810381811115610d0957610d096111ec565b600181811c9082168061126a57607f821691505b60208210810361128a57634e487b7160e01b600052602260045260246000fd5b50919050565b60006bffffffffffffffffffffffff19808860601b168352808760601b1660148401525084602883015283604883015282516112d3816068850160208701610f59565b919091016068019695505050505050565b601f82111561132e57600081815260208120601f850160051c8101602086101561130b5750805b601f850160051c820191505b8181101561132a57828155600101611317565b5050505b505050565b815167ffffffffffffffff81111561134d5761134d611010565b6113618161135b8454611256565b846112e4565b602080601f831160018114611396576000841561137e5750858301515b600019600386901b1c1916600185901b17855561132a565b600085815260208120601f198616915b828110156113c5578886015182559484019460019091019084016113a6565b50858210156113e35787850151600019600388901b60f8161c191681555b5050505050600190811b01905550565b8082028115828204841417610d0957610d096111ec565b60008261142757634e487b7160e01b600052601260045260246000fd5b50049056fe5e00297b9c4f8fef460c4d7123316eeeb08a64a0930d1d9cae0b61b7f663b254a26469706673582212206bc829021135ce51cc0f3a3ac0a0a4341c4e81b2f710512e8b0598c90d28084d64736f6c63430008140033",
  "linkReferences": {},
  "deployedLinkReferences": {}
}