{
  "_format": "hh-sol-artifact-1",
  "contractName": "FisherRewards",
  "sourceName": "contracts/FisherRewards.sol",
  "abi": [
    {
      "inputs": [],
      "stateMutability": "nonpayable",
      "type": "constructor"
    },
    {
      "anonymous": false,
      "inputs": [
        {
          "indexed": true,
          "internalType": "address",
          "name": "fisher",
          "type": "address"
        },
        {
          "indexed": false,
          "internalType": "uint256",
          "name": "timestamp",
          "type": "uint256"
        }
      ],
      "name": "FisherRegistered",
      "type": "event"
    },
    {
      "anonymous": false,
      "inputs": [
        {
          "indexed": true,
          "internalType": "address",
          "name": "fisher",
          "type": "address"
        },
        {
          "indexed": false,
          "internalType": "uint256",
          "name": "amount",
          "type": "uint256"
        },
        {
          "indexed": false,
          "internalType": "uint256",
          "name": "timestamp",
          "type": "uint256"
        }
      ],
      "name": "RewardClaimed",
      "type": "event"
    },
    {
      "anonymous": false,
      "inputs": [
        {
          "indexed": false,
          "internalType": "uint256",
          "name": "newRate",
          "type": "uint256"
        },
        {
          "indexed": false,
          "internalType": "uint256",
          "name": "timestamp",
          "type": "uint256"
        }
      ],
      "name": "RewardRateUpdated",
      "type": "event"
    },
    {
      "anonymous": false,
      "inputs": [
        {
          "indexed": true,
          "internalType": "bytes32",
          "name": "transactionId",
          "type": "bytes32"
        },
        {
          "indexed": true,
          "internalType": "address",
          "name": "fisher",
          "type": "address"
        },
        {
          "indexed": true,
          "internalType": "bytes32",
          "name": "paymentId",
          "type": "bytes32"
        },
        {
          "indexed": false,
          "internalType": "uint256",
          "name": "amount",
          "type": "uint256"
        },
        {
          "indexed": false,
          "internalType": "uint256",
          "name": "timestamp",
          "type": "uint256"
        }
      ],
      "name": "TransactionCaught",
      "type": "event"
    },
    {
      "anonymous": false,
      "inputs": [
        {
          "indexed": true,
          "internalType": "bytes32",
          "name": "transactionId",
          "type": "bytes32"
        },
        {
          "indexed": true,
          "internalType": "address",
          "name": "fisher",
          "type": "address"
        },
        {
          "indexed": true,
          "internalType": "bytes32",
          "name": "executionTxHash",
          "type": "bytes32"
        },
        {
          "indexed": false,
          "internalType": "uint256",
          "name": "reward",
          "type": "uint256"
        },
        {
          "indexed": false,
          "internalType": "uint256",
          "name": "timestamp",
          "type": "uint256"
        }
      ],
      "name": "TransactionExecuted",
      "type": "event"
    },
    {
      "inputs": [
        {
          "internalType": "uint256",
          "name": "",
          "type": "uint256"
        }
      ],
      "name": "activeFishers",
      "outputs": [
        {
          "internalType": "address",
          "name": "",
          "type": "address"
        }
      ],
      "stateMutability": "view",
      "type": "function"
    },
    {
      "inputs": [
        {
          "internalType": "uint256",
          "name": "_amount",
          "type": "uint256"
        }
      ],
      "name": "calculateReward",
      "outputs": [
        {
          "internalType": "uint256",
          "name": "",
          "type": "uint256"
        }
      ],
      "stateMutability": "view",
      "type": "function"
    },
    {
      "inputs": [
        {
          "internalType": "bytes32",
          "name": "_transactionId",
          "type": "bytes32"
        },
        {
          "internalType": "bytes32",
          "name": "_paymentId",
          "type": "bytes32"
        },
        {
          "internalType": "uint256",
          "name": "_amount",
          "type": "uint256"
        }
      ],
      "name": "catchTransaction",
      "outputs": [],
      "stateMutability": "nonpayable",
      "type": "function"
    },
    {
      "inputs": [
        {
          "internalType": "bytes32",
          "name": "",
          "type": "bytes32"
        }
      ],
      "name": "caughtTransactions",
      "outputs": [
        {
          "internalType": "bytes32",
          "name": "transactionId",
          "type": "bytes32"
        },
        {
          "internalType": "address",
          "name": "fisher",
          "type": "address"
        },
        {
          "internalType": "bytes32",
          "name": "paymentId",
          "type": "bytes32"
        },
        {
          "internalType": "uint256",
          "name": "amount",
          "type": "uint256"
        },
        {
          "internalType": "uint256",
          "name": "reward",
          "type": "uint256"
        },
        {
          "internalType": "uint256",
          "name": "timestamp",
          "type": "uint256"
        },
        {
          "internalType": "bool",
          "name": "executed",
          "type": "bool"
        },
        {
          "internalType": "bytes32",
          "name": "executionTxHash",
          "type": "bytes32"
        }
      ],
      "stateMutability": "view",
      "type": "function"
    },
    {
      "inputs": [],
      "name": "claimRewards",
      "outputs": [],
      "stateMutability": "nonpayable",
      "type": "function"
    },
    {
      "inputs": [
        {
          "internalType": "address",
          "name": "_fisherAddress",
          "type": "address"
        }
      ],
      "name": "deactivateFisher",
      "outputs": [],
      "stateMutability": "nonpayable",
      "type": "function"
    },
    {
      "inputs": [
        {
          "internalType": "address",
          "name": "",
          "type": "address"
        }
      ],
      "name": "fishers",
      "outputs": [
        {
          "internalType": "address",
          "name": "fisherAddress",
          "type": "address"
        },
        {
          "internalType": "uint256",
          "name": "totalCaught",
          "type": "uint256"
        },
        {
          "internalType": "uint256",
          "name": "totalExecuted",
          "type": "uint256"
        },
        {
          "internalType": "uint256",
          "name": "totalRewards",
          "type": "uint256"
        },
        {
          "internalType": "bool",
          "name": "active",
          "type": "bool"
        },
        {
          "internalType": "uint256",
          "name": "lastActivity",
          "type": "uint256"
        }
      ],
      "stateMutability": "view",
      "type": "function"
    },
    {
      "inputs": [],
      "name": "getActiveFishers",
      "outputs": [
        {
          "internalType": "address[]",
          "name": "",
          "type": "address[]"
        }
      ],
      "stateMutability": "view",
      "type": "function"
    },
    {
      "inputs": [],
      "name": "getActiveFishersCount",
      "outputs": [
        {
          "internalType": "uint256",
          "name": "",
          "type": "uint256"
        }
      ],
      "stateMutability": "view",
      "type": "function"
    },
    {
      "inputs": [
        {
          "internalType": "bytes32",
          "name": "_transactionId",
          "type": "bytes32"
        }
      ],
      "name": "getCaughtTransaction",
      "outputs": [
        {
          "components": [
            {
              "internalType": "bytes32",
              "name": "transactionId",
              "type": "bytes32"
            },
            {
              "internalType": "address",
              "name": "fisher",
              "type": "address"
            },
            {
              "internalType": "bytes32",
              "name": "paymentId",
              "type": "bytes32"
            },
            {
              "internalType": "uint256",
              "name": "amount",
              "type": "uint256"
            },
            {
              "internalType": "uint256",
              "name": "reward",
              "type": "uint256"
            },
            {
              "internalType": "uint256",
              "name": "timestamp",
              "type": "uint256"
            },
            {
              "internalType": "bool",
              "name": "executed",
              "type": "bool"
            },
            {
              "internalType": "bytes32",
              "name": "executionTxHash",
              "type": "bytes32"
            }
          ],
          "internalType": "struct FisherRewards.CaughtTransaction",
          "name": "",
          "type": "tuple"
        }
      ],
      "stateMutability": "view",
      "type": "function"
    },
    {
      "inputs": [
        {
          "internalType": "address",
          "name": "_fisherAddress",
          "type": "address"
        }
      ],
      "name": "getFisher",
      "outputs": [
        {
          "components": [
            {
              "internalType": "address",
              "name": "fisherAddress",
              "type": "address"
            },
            {
              "internalType": "uint256",
              "name": "totalCaught",
              "type": "uint256"
            },
            {
              "internalType": "uint256",
              "name": "totalExecuted",
              "type": "uint256"
            },
            {
              "internalType": "uint256",
              "name": "totalRewards",
              "type": "uint256"
            },
            {
              "internalType": "bool",
              "name": "active",
              "type": "bool"
            },
            {
              "internalType": "uint256",
              "name": "lastActivity",
              "type": "uint256"
            }
          ],
          "internalType": "struct FisherRewards.Fisher",
          "name": "",
          "type": "tuple"
        }
      ],
      "stateMutability": "view",
      "type": "function"
    },
    {
      "inputs": [
        {
          "internalType": "bytes32",
          "name": "_transactionId",
          "type": "bytes32"
        },
        {
          "internalType": "bytes32",
          "name": "_executionTxHash",
          "type": "bytes32"
        }
      ],
      "name": "markTransactionExecuted",
      "outputs": [],
      "stateMutability": "nonpayable",
      "type": "function"
    },
    {
      "inputs": [],
      "name": "maxReward",
      "outputs": [
        {
          "internalType": "uint256",
          "name": "",
          "type": "uint256"
        }
      ],
      "stateMutability": "view",
      "type": "function"
    },
    {
      "inputs": [],
      "name": "minReward",
      "outputs": [
        {
          "internalType": "uint256",
          "name": "",
          "type": "uint256"
        }
      ],
      "stateMutability": "view",
      "type": "function"
    },
    {
      "inputs": [],
      "name": "owner",
      "outputs": [
        {
          "internalType": "address",
          "name": "",
          "type": "address"
        }
      ],
      "stateMutability": "view",
      "type": "function"
    },
    {
      "inputs": [],
      "name": "registerFisher",
      "outputs": [],
      "stateMutability": "nonpayable",
      "type": "function"
    },
    {
      "inputs": [],
      "name": "rewardRate",
      "outputs": [
        {
          "internalType": "uint256",
          "name": "",
          "type": "uint256"
        }
      ],
      "stateMutability": "view",
      "type": "function"
    },
    {
      "inputs": [
        {
          "internalType": "uint256",
          "name": "_newMax",
          "type": "uint256"
        }
      ],
      "name": "setMaxReward",
      "outputs": [],
      "stateMutability": "nonpayable",
      "type": "function"
    },
    {
      "inputs": [
        {
          "internalType": "uint256",
          "name": "_newMin",
          "type": "uint256"
        }
      ],
      "name": "setMinReward",
      "outputs": [],
      "stateMutability": "nonpayable",
      "type": "function"
    },
    {
      "inputs": [
        {
          "internalType": "uint256",
          "name": "_newRate",
          "type": "uint256"
        }
      ],
      "name": "setRewardRate",
      "outputs": [],
      "stateMutability": "nonpayable",
      "type": "function"
    },
    {
      "inputs": [
        {
          "internalType": "uint256",
          "name": "_amount",
          "type": "uint256"
        }
      ],
      "name": "withdraw",
      "outputs": [],
      "stateMutability": "nonpayable",
      "type": "function"
    },
    {
      "stateMutability": "payable",
      "type": "receive"
    }
  ],
  "bytecode": "0x6080604052600a6004556103e8600555633b9aca0060065534801561002357600080fd5b50600380546001600160a01b031916331790556112a9806100456000396000f3fe60806040526004361061012e5760003560e01c806366a78e6c116100ab578063a7d50be01161006f578063a7d50be0146103f7578063af664d9714610417578063b6a1cb2b146104b0578063ba16d600146104d0578063d2d7231f146104e6578063f378b0171461050657600080fd5b806366a78e6c1461036b5780636ea02b05146103815780637b0a47ee146103a15780638da5cb5b146103b75780639e447fc6146103d757600080fd5b8063372500ab116100f2578063372500ab1461022e57806346111c041461024357806354b661af146102f457806356c1f86d1461032c5780635eada5f01461034c57600080fd5b806313c3ab7a1461013a57806316cbe34d146101b557806325c33e13146101d75780632e1a7d4d146101f95780632f83d3621461021957600080fd5b3661013557005b600080fd5b34801561014657600080fd5b5061015a6101553660046110b2565b610644565b6040516101ac919081516001600160a01b0316815260208083015190820152604080830151908201526060808301519082015260808083015115159082015260a0918201519181019190915260c00190565b60405180910390f35b3480156101c157600080fd5b506101ca6106f0565b6040516101ac91906110e2565b3480156101e357600080fd5b506101f76101f236600461112f565b610752565b005b34801561020557600080fd5b506101f761021436600461112f565b61078a565b34801561022557600080fd5b506101f7610839565b34801561023a57600080fd5b506101f76109a5565b34801561024f57600080fd5b506102af61025e36600461112f565b6001602081905260009182526040909120805491810154600282015460038301546004840154600585015460068601546007909601546001600160a01b0390951695939492939192909160ff169088565b604080519889526001600160a01b039097166020890152958701949094526060860192909252608085015260a0840152151560c083015260e0820152610100016101ac565b34801561030057600080fd5b5061031461030f36600461112f565b610aa9565b6040516001600160a01b0390911681526020016101ac565b34801561033857600080fd5b506101f7610347366004611148565b610ad3565b34801561035857600080fd5b506002545b6040519081526020016101ac565b34801561037757600080fd5b5061035d60065481565b34801561038d57600080fd5b506101f761039c3660046110b2565b610cf9565b3480156103ad57600080fd5b5061035d60045481565b3480156103c357600080fd5b50600354610314906001600160a01b031681565b3480156103e357600080fd5b506101f76103f236600461112f565b610db2565b34801561040357600080fd5b506101f7610412366004611174565b610e65565b34801561042357600080fd5b506104776104323660046110b2565b6000602081905290815260409020805460018201546002830154600384015460048501546005909501546001600160a01b039094169492939192909160ff9091169086565b604080516001600160a01b03909716875260208701959095529385019290925260608401521515608083015260a082015260c0016101ac565b3480156104bc57600080fd5b506101f76104cb36600461112f565b61103f565b3480156104dc57600080fd5b5061035d60055481565b3480156104f257600080fd5b5061035d61050136600461112f565b61106e565b34801561051257600080fd5b506105dd61052136600461112f565b6040805161010081018252600080825260208201819052918101829052606081018290526080810182905260a0810182905260c0810182905260e08101919091525060009081526001602081815260409283902083516101008101855281548152928101546001600160a01b0316918301919091526002810154928201929092526003820154606082015260048201546080820152600582015460a0820152600682015460ff16151560c082015260079091015460e082015290565b6040516101ac9190815181526020808301516001600160a01b03169082015260408083015190820152606080830151908201526080808301519082015260a0808301519082015260c08083015115159082015260e091820151918101919091526101000190565b6106886040518060c0016040528060006001600160a01b03168152602001600081526020016000815260200160008152602001600015158152602001600081525090565b506001600160a01b0390811660009081526020818152604091829020825160c0810184528154909416845260018101549184019190915260028101549183019190915260038101546060830152600481015460ff16151560808301526005015460a082015290565b6060600280548060200260200160405190810160405280929190818152602001828054801561074857602002820191906000526020600020905b81546001600160a01b0316815260019091019060200180831161072a575b5050505050905090565b6003546001600160a01b031633146107855760405162461bcd60e51b815260040161077c90611196565b60405180910390fd5b600655565b6003546001600160a01b031633146107b45760405162461bcd60e51b815260040161077c90611196565b804710156107fb5760405162461bcd60e51b8152602060048201526014602482015273496e73756666696369656e742062616c616e636560601b604482015260640161077c565b6003546040516001600160a01b039091169082156108fc029083906000818181858888f19350505050158015610835573d6000803e3d6000fd5b5050565b3360009081526020819052604090206004015460ff161561089c5760405162461bcd60e51b815260206004820152601960248201527f46697368657220616c7265616479207265676973746572656400000000000000604482015260640161077c565b6040805160c0810182523380825260006020808401828152848601838152606086018481526001608088018181524260a08a01818152898952968890528a882099518a546001600160a01b03919091166001600160a01b0319918216178b5595518a84015593516002808b0191909155925160038a01555160048901805491151560ff19909216919091179055935160059097019690965585549283018655949092527f405787fa12a823e0f2b7631cc41b3ba8828b3321ca811111fa75cd3aa3bb5ace0180549091168217905591517f7e8655a769a4fcadc277ec0149b3160717619cac82d6898f15fc015ce1656b569161099b9190815260200190565b60405180910390a2565b3360009081526020819052604090206004015460ff166109d75760405162461bcd60e51b815260040161077c906111cd565b3360009081526020819052604090206003015480610a2d5760405162461bcd60e51b81526020600482015260136024820152724e6f207265776172647320746f20636c61696d60681b604482015260640161077c565b336000818152602081905260408082206003018290555183156108fc0291849190818181858888f19350505050158015610a6b573d6000803e3d6000fd5b506040805182815242602082015233917ff01da32686223933d8a18a391060918c7f11a3648639edd87ae013e2e2731743910160405180910390a250565b60028181548110610ab957600080fd5b6000918252602090912001546001600160a01b0316905081565b3360009081526020819052604090206004015460ff16610b055760405162461bcd60e51b815260040161077c906111cd565b600083815260016020819052604090912001546001600160a01b031615610b6e5760405162461bcd60e51b815260206004820152601a60248201527f5472616e73616374696f6e20616c726561647920636175676874000000000000604482015260640161077c565b6000610b798261106e565b9050604051806101000160405280858152602001336001600160a01b031681526020018481526020018381526020018281526020014281526020016000151581526020016000801b815250600160008681526020019081526020016000206000820151816000015560208201518160010160006101000a8154816001600160a01b0302191690836001600160a01b0316021790555060408201518160020155606082015181600301556080820151816004015560a0820151816005015560c08201518160060160006101000a81548160ff02191690831515021790555060e08201518160070155905050600080336001600160a01b03166001600160a01b031681526020019081526020016000206001016000815480929190610c9b9061120e565b9091555050336000818152602081815260409182902042600590910181905582518681529182015285929187917f8136951ac04529014087a73510b4d91c5878be86c52a4bf14e09681259554b49910160405180910390a450505050565b6003546001600160a01b03163314610d235760405162461bcd60e51b815260040161077c90611196565b6001600160a01b03811660009081526020819052604090206004015460ff16610d8e5760405162461bcd60e51b815260206004820152601760248201527f46697368657220616c726561647920696e616374697665000000000000000000604482015260640161077c565b6001600160a01b03166000908152602081905260409020600401805460ff19169055565b6003546001600160a01b03163314610ddc5760405162461bcd60e51b815260040161077c90611196565b6103e8811115610e255760405162461bcd60e51b81526020600482015260146024820152730a4caeec2e4c840e4c2e8ca40e8dede40d0d2ced60631b604482015260640161077c565b6004819055604080518281524260208201527fc390a98ace15a7bb6bab611eedfdbb2685043b241a869420043cdfb23ccfee50910160405180910390a150565b3360009081526020819052604090206004015460ff16610e975760405162461bcd60e51b815260040161077c906111cd565b6000828152600160208190526040909120908101546001600160a01b03163314610efa5760405162461bcd60e51b81526020600482015260146024820152732737ba103cb7bab9103a3930b739b0b1ba34b7b760611b604482015260640161077c565b600681015460ff1615610f4f5760405162461bcd60e51b815260206004820152601c60248201527f5472616e73616374696f6e20616c726561647920657865637574656400000000604482015260640161077c565b60068101805460ff1916600117905560078101829055336000908152602081905260408120600201805491610f838361120e565b909155505060048101543360009081526020819052604081206003018054909190610faf908490611227565b909155505033600081815260208190526040808220426005909101556004840154905181156108fc0292818181858888f19350505050158015610ff6573d6000803e3d6000fd5b506004810154604080519182524260208301528391339186917f3f7d2cca6a603ff4820163a1134bf311d73510381b622678fd3dcb6c961854b7910160405180910390a4505050565b6003546001600160a01b031633146110695760405162461bcd60e51b815260040161077c90611196565b600555565b60008061271060045484611082919061123a565b61108c9190611251565b905060055481101561109d57506005545b6006548111156110ac57506006545b92915050565b6000602082840312156110c457600080fd5b81356001600160a01b03811681146110db57600080fd5b9392505050565b6020808252825182820181905260009190848201906040850190845b818110156111235783516001600160a01b0316835292840192918401916001016110fe565b50909695505050505050565b60006020828403121561114157600080fd5b5035919050565b60008060006060848603121561115d57600080fd5b505081359360208301359350604090920135919050565b6000806040838503121561118757600080fd5b50508035926020909101359150565b60208082526018908201527f4f6e6c79206f776e65722063616e2063616c6c20746869730000000000000000604082015260600190565b602080825260119082015270466973686572206e6f742061637469766560781b604082015260600190565b634e487b7160e01b600052601160045260246000fd5b600060018201611220576112206111f8565b5060010190565b808201808211156110ac576110ac6111f8565b80820281158282048414176110ac576110ac6111f8565b60008261126e57634e487b7160e01b600052601260045260246000fd5b50049056fea2646970667358221220ff503dc7e3e64c0e3fbeb6a055554288ef0fc2bc5aa5d4288e2896b3d2292ba464736f6c63430008140033",
  "linkReferences": {},
  "deployedLinkReferences": {}
}